{
  "contractName": "EHR",
  "abi": [
    {
      "constant": true,
      "inputs": [
        {
          "internalType": "uint256",
          "name": "",
          "type": "uint256"
        }
      ],
      "name": "Enc_Patients",
      "outputs": [
        {
          "internalType": "string",
          "name": "",
          "type": "string"
        }
      ],
      "payable": false,
      "stateMutability": "view",
      "type": "function"
    },
    {
      "constant": true,
      "inputs": [
        {
          "internalType": "uint256",
          "name": "",
          "type": "uint256"
        }
      ],
      "name": "Enc_Visits",
      "outputs": [
        {
          "internalType": "string",
          "name": "",
          "type": "string"
        }
      ],
      "payable": false,
      "stateMutability": "view",
      "type": "function"
    },
    {
      "constant": true,
      "inputs": [
        {
          "internalType": "uint256",
          "name": "",
          "type": "uint256"
        },
        {
          "internalType": "uint256",
          "name": "",
          "type": "uint256"
        }
      ],
      "name": "Patients_sig",
      "outputs": [
        {
          "internalType": "uint8",
          "name": "",
          "type": "uint8"
        }
      ],
      "payable": false,
      "stateMutability": "view",
      "type": "function"
    },
    {
      "constant": true,
      "inputs": [
        {
          "internalType": "uint256",
          "name": "",
          "type": "uint256"
        },
        {
          "internalType": "uint256",
          "name": "",
          "type": "uint256"
        }
      ],
      "name": "Visits_sig",
      "outputs": [
        {
          "internalType": "uint8",
          "name": "",
          "type": "uint8"
        }
      ],
      "payable": false,
      "stateMutability": "view",
      "type": "function"
    },
    {
      "constant": true,
      "inputs": [],
      "name": "patientCount",
      "outputs": [
        {
          "internalType": "uint256",
          "name": "",
          "type": "uint256"
        }
      ],
      "payable": false,
      "stateMutability": "view",
      "type": "function"
    },
    {
      "constant": true,
      "inputs": [],
      "name": "visitCount",
      "outputs": [
        {
          "internalType": "uint256",
          "name": "",
          "type": "uint256"
        }
      ],
      "payable": false,
      "stateMutability": "view",
      "type": "function"
    },
    {
      "constant": false,
      "inputs": [
        {
          "internalType": "string",
          "name": "_patientEnc",
          "type": "string"
        },
        {
          "internalType": "uint8[]",
          "name": "_patientSig",
          "type": "uint8[]"
        }
      ],
      "name": "addPatient",
      "outputs": [],
      "payable": false,
      "stateMutability": "nonpayable",
      "type": "function"
    },
    {
      "constant": false,
      "inputs": [
        {
          "internalType": "string",
          "name": "_visitHash",
          "type": "string"
        },
        {
          "internalType": "uint8[]",
          "name": "_visitSig",
          "type": "uint8[]"
        }
      ],
      "name": "addVisit",
      "outputs": [],
      "payable": false,
      "stateMutability": "nonpayable",
      "type": "function"
    }
  ],
  "bytecode": "0x608060405234801561001057600080fd5b506109c9806100206000396000f3fe608060405234801561001057600080fd5b50600436106100885760003560e01c806392cd88a01161005b57806392cd88a014610424578063a0303c41146104cb578063d35ec6fb146104e9578063e0e4367e1461053b57610088565b806334489a881461008d5780633a807ca9146101dc57806374f5f3ff1461022e57806385b7c34b146102d5575b600080fd5b6101da600480360360408110156100a357600080fd5b81019080803590602001906401000000008111156100c057600080fd5b8201836020820111156100d257600080fd5b803590602001918460018302840111640100000000831117156100f457600080fd5b91908080601f016020809104026020016040519081016040528093929190818152602001838380828437600081840152601f19601f8201169050808301925050505050505091929192908035906020019064010000000081111561015757600080fd5b82018360208201111561016957600080fd5b8035906020019184602083028401116401000000008311171561018b57600080fd5b919080806020026020016040519081016040528093929190818152602001838360200280828437600081840152601f19601f820116905080830192505050505050509192919290505050610559565b005b610212600480360360408110156101f257600080fd5b8101908080359060200190929190803590602001909291905050506105c2565b604051808260ff1660ff16815260200191505060405180910390f35b61025a6004803603602081101561024457600080fd5b8101908080359060200190929190505050610602565b6040518080602001828103825283818151815260200191508051906020019080838360005b8381101561029a57808201518184015260208101905061027f565b50505050905090810190601f1680156102c75780820380516001836020036101000a031916815260200191505b509250505060405180910390f35b610422600480360360408110156102eb57600080fd5b810190808035906020019064010000000081111561030857600080fd5b82018360208201111561031a57600080fd5b8035906020019184600183028401116401000000008311171561033c57600080fd5b91908080601f016020809104026020016040519081016040528093929190818152602001838380828437600081840152601f19601f8201169050808301925050505050505091929192908035906020019064010000000081111561039f57600080fd5b8201836020820111156103b157600080fd5b803590602001918460208302840111640100000000831117156103d357600080fd5b919080806020026020016040519081016040528093929190818152602001838360200280828437600081840152601f19601f8201169050808301925050505050505091929192905050506106b2565b005b6104506004803603602081101561043a57600080fd5b810190808035906020019092919050505061071c565b6040518080602001828103825283818151815260200191508051906020019080838360005b83811015610490578082015181840152602081019050610475565b50505050905090810190601f1680156104bd5780820380516001836020036101000a031916815260200191505b509250505060405180910390f35b6104d36107cc565b6040518082815260200191505060405180910390f35b61051f600480360360408110156104ff57600080fd5b8101908080359060200190929190803590602001909291905050506107d2565b604051808260ff1660ff16815260200191505060405180910390f35b610543610812565b6040518082815260200191505060405180910390f35b6004600081548092919060010191905055508160008060045481526020019081526020016000209080519060200190610593929190610818565b508060016000600454815260200190815260200160002090805190602001906105bd929190610898565b505050565b600160205281600052604060002081815481106105db57fe5b9060005260206000209060209182820401919006915091509054906101000a900460ff1681565b60026020528060005260406000206000915090508054600181600116156101000203166002900480601f0160208091040260200160405190810160405280929190818152602001828054600181600116156101000203166002900480156106aa5780601f1061067f576101008083540402835291602001916106aa565b820191906000526020600020905b81548152906001019060200180831161068d57829003601f168201915b505050505081565b6005600081548092919060010191905055508160026000600554815260200190815260200160002090805190602001906106ed929190610818565b50806003600060055481526020019081526020016000209080519060200190610717929190610898565b505050565b60006020528060005260406000206000915090508054600181600116156101000203166002900480601f0160208091040260200160405190810160405280929190818152602001828054600181600116156101000203166002900480156107c45780601f10610799576101008083540402835291602001916107c4565b820191906000526020600020905b8154815290600101906020018083116107a757829003601f168201915b505050505081565b60055481565b600360205281600052604060002081815481106107eb57fe5b9060005260206000209060209182820401919006915091509054906101000a900460ff1681565b60045481565b828054600181600116156101000203166002900490600052602060002090601f016020900481019282601f1061085957805160ff1916838001178555610887565b82800160010185558215610887579182015b8281111561088657825182559160200191906001019061086b565b5b509050610894919061093f565b5090565b82805482825590600052602060002090601f0160209004810192821561092e5791602002820160005b838211156108ff57835183826101000a81548160ff021916908360ff16021790555092602001926001016020816000010492830192600103026108c1565b801561092c5782816101000a81549060ff02191690556001016020816000010492830192600103026108ff565b505b50905061093b9190610964565b5090565b61096191905b8082111561095d576000816000905550600101610945565b5090565b90565b61099191905b8082111561098d57600081816101000a81549060ff02191690555060010161096a565b5090565b9056fea265627a7a723158203e61d7b95a0c8d7f2b5bd9c2e05d499576d7998c4ec6dfcc68c0f36e9918ae4564736f6c63430005100032",
  "source": "// SPDX-License-Identifier: MIT\r\npragma solidity ^0.5.16;\r\n\r\ncontract EHR {\r\n    mapping(uint256 => string) public Enc_Visits;\r\n    mapping(uint256 => uint8[]) public Visits_sig;\r\n    mapping(uint256 => string) public Enc_Patients;\r\n    mapping(uint256 => uint8[]) public Patients_sig;\r\n    uint256 public visitCount;\r\n    uint256 public patientCount;\r\n\r\n    function addPatient(string memory _patientEnc, uint8[] memory _patientSig)\r\n        public\r\n    {\r\n        patientCount++;\r\n        Enc_Patients[patientCount] = _patientEnc;\r\n        Patients_sig[patientCount] = _patientSig;\r\n    }\r\n\r\n    function addVisit(string memory _visitHash, uint8[] memory _visitSig)\r\n        public\r\n    {\r\n        visitCount++;\r\n        Enc_Visits[visitCount] = _visitHash;\r\n        Visits_sig[visitCount] = _visitSig;\r\n    }\r\n}\r\n",
  "sourcePath": "E:\\GUC\\Sem 10\\Security\\project\\bc_security\\src\\contracts\\EHR.sol",
  "compiler": {
    "name": "solc",
    "version": "0.5.16+commit.9c3226ce.Emscripten.clang"
  },
  "schemaVersion": "3.4.7",
  "updatedAt": "2022-06-10T22:10:19.558Z",
  "devdoc": {
    "methods": {}
  },
  "userdoc": {
    "methods": {}
  }
}